:100000000C9434000C9446000C9446000C9446006A
:100010000C9446000C9446000C9446000C94460048
:100020000C9446000C9446000C9462000C9446001C
:100030000C9446000C9446000C9446000C94460028
:100040000C9446000C9446000C9446000C94460018
:100050000C9446000C9446000C9446000C94460008
:100060000C9446000C94460011241FBECFEFD8E03C
:10007000DEBFCDBF21E0A0E0B1E001C01D92A931FB
:10008000B207E1F70E9445010C947B010C9400003B
:100090003091000120910101321791F0E0910001AF
:1000A000F0E0EE5FFE4F2081FC0120838091000193
:1000B00090E00196877099278093000181E0089570
:1000C00080E008951F920F920FB60F9211242F9384
:1000D0003F934F935F938F939F938091860090916E
:1000E00087002091170130911801AC01421B530B7E
:1000F00090931801809317015093160140931501B6
:1001000081E0809314019F918F915F914F913F9176
:100110002F910F900FBE0F901F9018958091140192
:10012000882309F4A0C0F8948091150190911601DC
:100130001092140178949C012C52314021323340AA
:10014000A8F585389240A8F121E030E080910D01BA
:1001500090E0FC01EE0FFF1FE25FFE4F3183208332
:10016000019663E070E00E945301282F80930D01F7
:10017000811179C0EEE0F1E064E171E090E080E0AF
:100180004191519141305105B9F42F5F6E177F07AE
:10019000B9F7911104C02330B1F0833011F11092FE
:1001A0000A0110920B0110920C01089530E020E03A
:1001B000CDCF22E030E0CACF4230510511F48F5F3D
:1001C000E5CF9F5FE3CF21E030E080910A0181110C
:1001D0000BC02230310509F446C081E080930A014A
:1001E000E0CF22E030E0F1CF81E02230310509F0AC
:1001F00080E030910B0120910C01383060F4032E27
:1002000001C0880F0A94EAF7822B80930C013F5FAC
:1002100030930B010895E22FF0E050E040E0BF0181
:10022000042E02C0759567950A94E2F761709627CF
:100230004F5F5F4F4830510591F78913B0CF8091E0
:10024000010190E0019687709927309100013817DD
:1002500009F4A5CFE0910101F0E0EE5FFE4F2083AD
:10026000809301019CCF089520981092800082EC29
:100270008093810080E280936F0010920D011092B4
:100280000A0110920B0178940895CF93DF931F9287
:10029000CDB7DEB70E9434010E948E00CE010196D8
:1002A0000E944800F9CF97FB072E16F4009407D060
:1002B00077FD09D00E94670107FC05D03EF49095B8
:1002C00081959F4F0895709561957F4F0895AA1B62
:1002D000BB1B51E107C0AA1FBB1FA617B70710F031
:1002E000A61BB70B881F991F5A95A9F78095909563
:0A02F000BC01CD010895F894FFCF82
:00000001FF
